{
  "_format": "hh-sol-artifact-1",
  "contractName": "MarketPlace",
  "sourceName": "contracts/marketplace.sol",
  "abi": [
    {
      "inputs": [
        {
          "internalType": "uint256",
          "name": "_feePercent",
          "type": "uint256"
        }
      ],
      "stateMutability": "nonpayable",
      "type": "constructor"
    },
    {
      "anonymous": false,
      "inputs": [
        {
          "indexed": false,
          "internalType": "uint256",
          "name": "itemId",
          "type": "uint256"
        },
        {
          "indexed": true,
          "internalType": "address",
          "name": "nft",
          "type": "address"
        },
        {
          "indexed": false,
          "internalType": "uint256",
          "name": "tokenId",
          "type": "uint256"
        },
        {
          "indexed": true,
          "internalType": "address",
          "name": "seller",
          "type": "address"
        },
        {
          "indexed": true,
          "internalType": "address",
          "name": "buyer",
          "type": "address"
        }
      ],
      "name": "ItemBought",
      "type": "event"
    },
    {
      "anonymous": false,
      "inputs": [
        {
          "indexed": false,
          "internalType": "uint256",
          "name": "itemId",
          "type": "uint256"
        },
        {
          "indexed": true,
          "internalType": "address",
          "name": "nft",
          "type": "address"
        },
        {
          "indexed": false,
          "internalType": "uint256",
          "name": "tokenId",
          "type": "uint256"
        },
        {
          "indexed": true,
          "internalType": "address",
          "name": "owner",
          "type": "address"
        },
        {
          "indexed": false,
          "internalType": "uint256",
          "name": "price",
          "type": "uint256"
        }
      ],
      "name": "ItemCreated",
      "type": "event"
    },
    {
      "anonymous": false,
      "inputs": [
        {
          "indexed": true,
          "internalType": "address",
          "name": "operator",
          "type": "address"
        },
        {
          "indexed": true,
          "internalType": "address",
          "name": "from",
          "type": "address"
        },
        {
          "indexed": false,
          "internalType": "uint256",
          "name": "tokenId",
          "type": "uint256"
        },
        {
          "indexed": false,
          "internalType": "bytes",
          "name": "data",
          "type": "bytes"
        }
      ],
      "name": "received",
      "type": "event"
    },
    {
      "inputs": [
        {
          "internalType": "uint256",
          "name": "_itemId",
          "type": "uint256"
        }
      ],
      "name": "buyItem",
      "outputs": [],
      "stateMutability": "payable",
      "type": "function"
    },
    {
      "inputs": [
        {
          "internalType": "contract IERC721",
          "name": "_nft",
          "type": "address"
        },
        {
          "internalType": "uint256",
          "name": "_tokenId",
          "type": "uint256"
        },
        {
          "internalType": "uint256",
          "name": "_price",
          "type": "uint256"
        }
      ],
      "name": "createItem",
      "outputs": [],
      "stateMutability": "nonpayable",
      "type": "function"
    },
    {
      "inputs": [],
      "name": "feePercent",
      "outputs": [
        {
          "internalType": "uint256",
          "name": "",
          "type": "uint256"
        }
      ],
      "stateMutability": "view",
      "type": "function"
    },
    {
      "inputs": [],
      "name": "getContractBalance",
      "outputs": [
        {
          "internalType": "uint256",
          "name": "",
          "type": "uint256"
        }
      ],
      "stateMutability": "view",
      "type": "function"
    },
    {
      "inputs": [],
      "name": "getLatestPrice",
      "outputs": [
        {
          "internalType": "int256",
          "name": "",
          "type": "int256"
        }
      ],
      "stateMutability": "view",
      "type": "function"
    },
    {
      "inputs": [
        {
          "internalType": "uint256",
          "name": "_itemId",
          "type": "uint256"
        }
      ],
      "name": "getTotalPrice",
      "outputs": [
        {
          "internalType": "uint256",
          "name": "",
          "type": "uint256"
        }
      ],
      "stateMutability": "view",
      "type": "function"
    },
    {
      "inputs": [],
      "name": "itemCount",
      "outputs": [
        {
          "internalType": "uint256",
          "name": "_value",
          "type": "uint256"
        }
      ],
      "stateMutability": "view",
      "type": "function"
    },
    {
      "inputs": [
        {
          "internalType": "uint256",
          "name": "",
          "type": "uint256"
        }
      ],
      "name": "items",
      "outputs": [
        {
          "internalType": "uint256",
          "name": "itemId",
          "type": "uint256"
        },
        {
          "internalType": "contract IERC721",
          "name": "nft",
          "type": "address"
        },
        {
          "internalType": "uint256",
          "name": "tokenId",
          "type": "uint256"
        },
        {
          "internalType": "uint256",
          "name": "price",
          "type": "uint256"
        },
        {
          "internalType": "address payable",
          "name": "seller",
          "type": "address"
        },
        {
          "internalType": "bool",
          "name": "sold",
          "type": "bool"
        }
      ],
      "stateMutability": "view",
      "type": "function"
    },
    {
      "inputs": [],
      "name": "mainAccount",
      "outputs": [
        {
          "internalType": "address payable",
          "name": "",
          "type": "address"
        }
      ],
      "stateMutability": "view",
      "type": "function"
    },
    {
      "inputs": [
        {
          "internalType": "uint256",
          "name": "__price",
          "type": "uint256"
        }
      ],
      "name": "priceConvert",
      "outputs": [
        {
          "internalType": "uint256",
          "name": "",
          "type": "uint256"
        }
      ],
      "stateMutability": "view",
      "type": "function"
    },
    {
      "stateMutability": "payable",
      "type": "receive"
    }
  ],
  "bytecode": "0x60a060405230600160006101000a81548173ffffffffffffffffffffffffffffffffffffffff021916908373ffffffffffffffffffffffffffffffffffffffff1602179055503480156200005257600080fd5b50604051620016eb380380620016eb8339818101604052810190620000789190620000fb565b60016000819055508060808181525050738a753747a1fa494ec906ce90e9f37563a8af630e600360006101000a81548173ffffffffffffffffffffffffffffffffffffffff021916908373ffffffffffffffffffffffffffffffffffffffff160217905550506200014b565b600081519050620000f58162000131565b92915050565b6000602082840312156200010e57600080fd5b60006200011e84828501620000e4565b91505092915050565b6000819050919050565b6200013c8162000127565b81146200014857600080fd5b50565b60805161157d6200016e600039600081816105f10152610752015261157d6000f3fe6080604052600436106100955760003560e01c80637fd6f15c116100595780637fd6f15c146101885780638e15f473146101b3578063bfb231d2146101de578063ca7dd37514610220578063e7fb74c71461025d5761009c565b80631123cfe0146100a15780634abfe1e6146100cc57806357baf0fb146101095780636bfb0d01146101325780636f9fb98a1461015d5761009c565b3661009c57005b600080fd5b3480156100ad57600080fd5b506100b6610279565b6040516100c39190610f84565b60405180910390f35b3480156100d857600080fd5b506100f360048036038101906100ee9190610d80565b61029f565b60405161010091906110b1565b60405180910390f35b34801561011557600080fd5b50610130600480360381019061012b9190610d31565b6102d3565b005b34801561013e57600080fd5b506101476105db565b60405161015491906110b1565b60405180910390f35b34801561016957600080fd5b506101726105e7565b60405161017f91906110b1565b60405180910390f35b34801561019457600080fd5b5061019d6105ef565b6040516101aa91906110b1565b60405180910390f35b3480156101bf57600080fd5b506101c8610613565b6040516101d59190610fd6565b60405180910390f35b3480156101ea57600080fd5b5061020560048036038101906102009190610d80565b6106c3565b604051610217969594939291906110cc565b60405180910390f35b34801561022c57600080fd5b5061024760048036038101906102429190610d80565b61074c565b60405161025491906110b1565b60405180910390f35b61027760048036038101906102729190610d80565b6107af565b005b600160009054906101000a900473ffffffffffffffffffffffffffffffffffffffff1681565b6000806102aa610613565b670de0b6b3a7640000846102be9190611230565b6102c891906111ff565b905080915050919050565b60026000541415610319576040517f08c379a000000000000000000000000000000000000000000000000000000000815260040161031090611071565b60405180910390fd5b6002600081905550600073ffffffffffffffffffffffffffffffffffffffff163373ffffffffffffffffffffffffffffffffffffffff16141561035b57600080fd5b600081141561039f576040517f08c379a000000000000000000000000000000000000000000000000000000000815260040161039690611011565b60405180910390fd5b8273ffffffffffffffffffffffffffffffffffffffff166323b872dd3330856040518463ffffffff1660e01b81526004016103dc93929190610f9f565b600060405180830381600087803b1580156103f657600080fd5b505af115801561040a573d6000803e3d6000fd5b505050506104186002610ca4565b60006104246002610cba565b90506040518060c001604052808281526020018573ffffffffffffffffffffffffffffffffffffffff1681526020018481526020018381526020013373ffffffffffffffffffffffffffffffffffffffff16815260200160001515815250600460008381526020019081526020016000206000820151816000015560208201518160010160006101000a81548173ffffffffffffffffffffffffffffffffffffffff021916908373ffffffffffffffffffffffffffffffffffffffff160217905550604082015181600201556060820151816003015560808201518160040160006101000a81548173ffffffffffffffffffffffffffffffffffffffff021916908373ffffffffffffffffffffffffffffffffffffffff16021790555060a08201518160040160146101000a81548160ff0219169083151502179055509050503373ffffffffffffffffffffffffffffffffffffffff168473ffffffffffffffffffffffffffffffffffffffff167f35e126366af7ea99fc0a1d8ad8df3e23d8be190ee1e948f7b2bf132bdc50899d8386866040516105c593929190611156565b60405180910390a3506001600081905550505050565b60028060000154905081565b600047905090565b7f000000000000000000000000000000000000000000000000000000000000000081565b600080600360009054906101000a900473ffffffffffffffffffffffffffffffffffffffff1673ffffffffffffffffffffffffffffffffffffffff1663feaf968c6040518163ffffffff1660e01b815260040160a06040518083038186803b15801561067e57600080fd5b505afa158015610692573d6000803e3d6000fd5b505050506040513d601f19601f820116820180604052508101906106b69190610da9565b5050509150508091505090565b60046020528060005260406000206000915090508060000154908060010160009054906101000a900473ffffffffffffffffffffffffffffffffffffffff16908060020154908060030154908060040160009054906101000a900473ffffffffffffffffffffffffffffffffffffffff16908060040160149054906101000a900460ff16905086565b600060647f0000000000000000000000000000000000000000000000000000000000000000606461077d91906111a9565b600460008581526020019081526020016000206003015461079e9190611230565b6107a891906111ff565b9050919050565b600260005414156107f5576040517f08c379a00000000000000000000000000000000000000000000000000000000081526004016107ec90611071565b60405180910390fd5b6002600081905550600073ffffffffffffffffffffffffffffffffffffffff163373ffffffffffffffffffffffffffffffffffffffff16141561083757600080fd5b60006108428261074c565b9050600061084f8261029f565b905060006004600085815260200190815260200160002090506000610877826003015461029f565b905060008184610887919061128a565b90506000861180156108a2575061089e6002610cba565b8611155b6108e1576040517f08c379a00000000000000000000000000000000000000000000000000000000081526004016108d890611051565b60405180910390fd5b83341015610924576040517f08c379a000000000000000000000000000000000000000000000000000000000815260040161091b90611031565b60405180910390fd5b8260040160149054906101000a900460ff1615610976576040517f08c379a000000000000000000000000000000000000000000000000000000000815260040161096d90611091565b60405180910390fd5b6000600160009054906101000a900473ffffffffffffffffffffffffffffffffffffffff1673ffffffffffffffffffffffffffffffffffffffff16826040516109be90610f6f565b60006040518083038185875af1925050503d80600081146109fb576040519150601f19603f3d011682016040523d82523d6000602084013e610a00565b606091505b5050905080610a44576040517f08c379a0000000000000000000000000000000000000000000000000000000008152600401610a3b90610ff1565b60405180910390fd5b60008460040160009054906101000a900473ffffffffffffffffffffffffffffffffffffffff1673ffffffffffffffffffffffffffffffffffffffff1684604051610a8e90610f6f565b60006040518083038185875af1925050503d8060008114610acb576040519150601f19603f3d011682016040523d82523d6000602084013e610ad0565b606091505b5050905080610b14576040517f08c379a0000000000000000000000000000000000000000000000000000000008152600401610b0b90610ff1565b60405180910390fd5b60018560040160146101000a81548160ff0219169083151502179055508460010160009054906101000a900473ffffffffffffffffffffffffffffffffffffffff1673ffffffffffffffffffffffffffffffffffffffff166323b872dd303388600201546040518463ffffffff1660e01b8152600401610b9693929190610f9f565b600060405180830381600087803b158015610bb057600080fd5b505af1158015610bc4573d6000803e3d6000fd5b505050503373ffffffffffffffffffffffffffffffffffffffff168560040160009054906101000a900473ffffffffffffffffffffffffffffffffffffffff1673ffffffffffffffffffffffffffffffffffffffff168660010160009054906101000a900473ffffffffffffffffffffffffffffffffffffffff1673ffffffffffffffffffffffffffffffffffffffff167fc74e22d5035702bfa30908035fcb91e18880dc4b2ae5ee2a194d2e02836a804d8b8960020154604051610c8a92919061112d565b60405180910390a450505050505050600160008190555050565b6001816000016000828254019250508190555050565b600081600001549050919050565b600081359050610cd7816114eb565b92915050565b600081519050610cec81611502565b92915050565b600081359050610d0181611519565b92915050565b600081519050610d1681611519565b92915050565b600081519050610d2b81611530565b92915050565b600080600060608486031215610d4657600080fd5b6000610d5486828701610cc8565b9350506020610d6586828701610cf2565b9250506040610d7686828701610cf2565b9150509250925092565b600060208284031215610d9257600080fd5b6000610da084828501610cf2565b91505092915050565b600080600080600060a08688031215610dc157600080fd5b6000610dcf88828901610d1c565b9550506020610de088828901610cdd565b9450506040610df188828901610d07565b9350506060610e0288828901610d07565b9250506080610e1388828901610d1c565b9150509295509295909350565b610e29816112d0565b82525050565b610e38816112be565b82525050565b610e47816112e2565b82525050565b610e568161134a565b82525050565b610e6581611300565b82525050565b6000610e78602083611198565b9150610e83826113cc565b602082019050919050565b6000610e9b601f83611198565b9150610ea6826113f5565b602082019050919050565b6000610ebe603383611198565b9150610ec98261141e565b604082019050919050565b6000610ee1601283611198565b9150610eec8261146d565b602082019050919050565b6000610f0460008361118d565b9150610f0f82611496565b600082019050919050565b6000610f27601f83611198565b9150610f3282611499565b602082019050919050565b6000610f4a601183611198565b9150610f55826114c2565b602082019050919050565b610f698161132a565b82525050565b6000610f7a82610ef7565b9150819050919050565b6000602082019050610f996000830184610e20565b92915050565b6000606082019050610fb46000830186610e2f565b610fc16020830185610e2f565b610fce6040830184610f60565b949350505050565b6000602082019050610feb6000830184610e5c565b92915050565b6000602082019050818103600083015261100a81610e6b565b9050919050565b6000602082019050818103600083015261102a81610e8e565b9050919050565b6000602082019050818103600083015261104a81610eb1565b9050919050565b6000602082019050818103600083015261106a81610ed4565b9050919050565b6000602082019050818103600083015261108a81610f1a565b9050919050565b600060208201905081810360008301526110aa81610f3d565b9050919050565b60006020820190506110c66000830184610f60565b92915050565b600060c0820190506110e16000830189610f60565b6110ee6020830188610e4d565b6110fb6040830187610f60565b6111086060830186610f60565b6111156080830185610e20565b61112260a0830184610e3e565b979650505050505050565b60006040820190506111426000830185610f60565b61114f6020830184610f60565b9392505050565b600060608201905061116b6000830186610f60565b6111786020830185610f60565b6111856040830184610f60565b949350505050565b600081905092915050565b600082825260208201905092915050565b60006111b48261132a565b91506111bf8361132a565b9250827fffffffffffffffffffffffffffffffffffffffffffffffffffffffffffffffff038211156111f4576111f361136e565b5b828201905092915050565b600061120a8261132a565b91506112158361132a565b9250826112255761122461139d565b5b828204905092915050565b600061123b8261132a565b91506112468361132a565b9250817fffffffffffffffffffffffffffffffffffffffffffffffffffffffffffffffff048311821515161561127f5761127e61136e565b5b828202905092915050565b60006112958261132a565b91506112a08361132a565b9250828210156112b3576112b261136e565b5b828203905092915050565b60006112c98261130a565b9050919050565b60006112db8261130a565b9050919050565b60008115159050919050565b60006112f9826112be565b9050919050565b6000819050919050565b600073ffffffffffffffffffffffffffffffffffffffff82169050919050565b6000819050919050565b600069ffffffffffffffffffff82169050919050565b60006113558261135c565b9050919050565b60006113678261130a565b9050919050565b7f4e487b7100000000000000000000000000000000000000000000000000000000600052601160045260246000fd5b7f4e487b7100000000000000000000000000000000000000000000000000000000600052601260045260246000fd5b7f4574686572207472616e73666572207761736e2774207375636365737366756c600082015250565b7f5072696365206d7573742062652067726561746572207468616e207a65726f00600082015250565b7f4e6f7420656e6f75676820657468657220746f20636f766572206974656d207060008201527f7269636520616e64206d61726b65742066656500000000000000000000000000602082015250565b7f4974656d20646f65736e27742065786973740000000000000000000000000000600082015250565b50565b7f5265656e7472616e637947756172643a207265656e7472616e742063616c6c00600082015250565b7f4974656d20616c726561647920736f6c64000000000000000000000000000000600082015250565b6114f4816112ee565b81146114ff57600080fd5b50565b61150b81611300565b811461151657600080fd5b50565b6115228161132a565b811461152d57600080fd5b50565b61153981611334565b811461154457600080fd5b5056fea2646970667358221220355fee466a83417ab7286c7b2f259f664772776217375d96c4e5e8b370e067ea64736f6c63430008040033",
  "linkReferences": {},
  "deployedLinkReferences": {}
}