{
  "_format": "hh-sol-artifact-1",
  "contractName": "MarketPlace",
  "sourceName": "contracts/marketplace.sol",
  "abi": [
    {
      "inputs": [
        {
          "internalType": "uint256",
          "name": "_feePercent",
          "type": "uint256"
        }
      ],
      "stateMutability": "nonpayable",
      "type": "constructor"
    },
    {
      "inputs": [],
      "name": "feePercent",
      "outputs": [
        {
          "internalType": "uint256",
          "name": "",
          "type": "uint256"
        }
      ],
      "stateMutability": "view",
      "type": "function"
    },
    {
      "inputs": [],
      "name": "itemCount",
      "outputs": [
        {
          "internalType": "uint256",
          "name": "_value",
          "type": "uint256"
        }
      ],
      "stateMutability": "view",
      "type": "function"
    },
    {
      "inputs": [],
      "name": "mainAccount",
      "outputs": [
        {
          "internalType": "address payable",
          "name": "",
          "type": "address"
        }
      ],
      "stateMutability": "view",
      "type": "function"
    }
  ],
  "bytecode": "0x60a060405230600260006101000a81548173ffffffffffffffffffffffffffffffffffffffff021916908373ffffffffffffffffffffffffffffffffffffffff16021790555034801561005157600080fd5b506040516102be3803806102be8339818101604052810190610073919061009e565b60016000819055508060808181525050506100e8565b600081519050610098816100d1565b92915050565b6000602082840312156100b057600080fd5b60006100be84828501610089565b91505092915050565b6000819050919050565b6100da816100c7565b81146100e557600080fd5b50565b6080516101bc610102600039600060d401526101bc6000f3fe608060405234801561001057600080fd5b50600436106100415760003560e01c80631123cfe0146100465780636bfb0d01146100645780637fd6f15c14610082575b600080fd5b61004e6100a0565b60405161005b9190610114565b60405180910390f35b61006c6100c6565b604051610079919061012f565b60405180910390f35b61008a6100d2565b604051610097919061012f565b60405180910390f35b600260009054906101000a900473ffffffffffffffffffffffffffffffffffffffff1681565b60038060000154905081565b7f000000000000000000000000000000000000000000000000000000000000000081565b6100ff8161014a565b82525050565b61010e8161017c565b82525050565b600060208201905061012960008301846100f6565b92915050565b60006020820190506101446000830184610105565b92915050565b60006101558261015c565b9050919050565b600073ffffffffffffffffffffffffffffffffffffffff82169050919050565b600081905091905056fea2646970667358221220307ce1f0a33abe6570f8fbdd7b3f23c89aba23e636f67d212ef0661d8b5c7efd64736f6c63430008040033",
  "linkReferences": {},
  "deployedLinkReferences": {}
}