{
  "_format": "hh-sol-artifact-1",
  "contractName": "NFT",
  "sourceName": "contracts/nft.sol",
  "abi": [
    {
      "inputs": [],
      "stateMutability": "nonpayable",
      "type": "constructor"
    },
    {
      "anonymous": false,
      "inputs": [
        {
          "indexed": true,
          "internalType": "address",
          "name": "owner",
          "type": "address"
        },
        {
          "indexed": true,
          "internalType": "address",
          "name": "approved",
          "type": "address"
        },
        {
          "indexed": true,
          "internalType": "uint256",
          "name": "tokenId",
          "type": "uint256"
        }
      ],
      "name": "Approval",
      "type": "event"
    },
    {
      "anonymous": false,
      "inputs": [
        {
          "indexed": true,
          "internalType": "address",
          "name": "owner",
          "type": "address"
        },
        {
          "indexed": true,
          "internalType": "address",
          "name": "operator",
          "type": "address"
        },
        {
          "indexed": false,
          "internalType": "bool",
          "name": "approved",
          "type": "bool"
        }
      ],
      "name": "ApprovalForAll",
      "type": "event"
    },
    {
      "anonymous": false,
      "inputs": [
        {
          "indexed": true,
          "internalType": "address",
          "name": "previousOwner",
          "type": "address"
        },
        {
          "indexed": true,
          "internalType": "address",
          "name": "newOwner",
          "type": "address"
        }
      ],
      "name": "OwnershipTransferred",
      "type": "event"
    },
    {
      "anonymous": false,
      "inputs": [
        {
          "indexed": true,
          "internalType": "address",
          "name": "from",
          "type": "address"
        },
        {
          "indexed": true,
          "internalType": "address",
          "name": "to",
          "type": "address"
        },
        {
          "indexed": true,
          "internalType": "uint256",
          "name": "tokenId",
          "type": "uint256"
        }
      ],
      "name": "Transfer",
      "type": "event"
    },
    {
      "inputs": [
        {
          "internalType": "address",
          "name": "to",
          "type": "address"
        },
        {
          "internalType": "uint256",
          "name": "tokenId",
          "type": "uint256"
        }
      ],
      "name": "approve",
      "outputs": [],
      "stateMutability": "nonpayable",
      "type": "function"
    },
    {
      "inputs": [
        {
          "internalType": "address",
          "name": "owner",
          "type": "address"
        }
      ],
      "name": "balanceOf",
      "outputs": [
        {
          "internalType": "uint256",
          "name": "",
          "type": "uint256"
        }
      ],
      "stateMutability": "view",
      "type": "function"
    },
    {
      "inputs": [
        {
          "internalType": "uint256",
          "name": "tokenId",
          "type": "uint256"
        }
      ],
      "name": "getApproved",
      "outputs": [
        {
          "internalType": "address",
          "name": "",
          "type": "address"
        }
      ],
      "stateMutability": "view",
      "type": "function"
    },
    {
      "inputs": [
        {
          "internalType": "address",
          "name": "owner",
          "type": "address"
        },
        {
          "internalType": "address",
          "name": "operator",
          "type": "address"
        }
      ],
      "name": "isApprovedForAll",
      "outputs": [
        {
          "internalType": "bool",
          "name": "",
          "type": "bool"
        }
      ],
      "stateMutability": "view",
      "type": "function"
    },
    {
      "inputs": [],
      "name": "name",
      "outputs": [
        {
          "internalType": "string",
          "name": "",
          "type": "string"
        }
      ],
      "stateMutability": "view",
      "type": "function"
    },
    {
      "inputs": [],
      "name": "owner",
      "outputs": [
        {
          "internalType": "address",
          "name": "",
          "type": "address"
        }
      ],
      "stateMutability": "view",
      "type": "function"
    },
    {
      "inputs": [
        {
          "internalType": "uint256",
          "name": "tokenId",
          "type": "uint256"
        }
      ],
      "name": "ownerOf",
      "outputs": [
        {
          "internalType": "address",
          "name": "",
          "type": "address"
        }
      ],
      "stateMutability": "view",
      "type": "function"
    },
    {
      "inputs": [],
      "name": "renounceOwnership",
      "outputs": [],
      "stateMutability": "nonpayable",
      "type": "function"
    },
    {
      "inputs": [
        {
          "internalType": "string",
          "name": "uri",
          "type": "string"
        }
      ],
      "name": "safeMint",
      "outputs": [
        {
          "internalType": "uint256",
          "name": "",
          "type": "uint256"
        }
      ],
      "stateMutability": "nonpayable",
      "type": "function"
    },
    {
      "inputs": [
        {
          "internalType": "address",
          "name": "from",
          "type": "address"
        },
        {
          "internalType": "address",
          "name": "to",
          "type": "address"
        },
        {
          "internalType": "uint256",
          "name": "tokenId",
          "type": "uint256"
        }
      ],
      "name": "safeTransferFrom",
      "outputs": [],
      "stateMutability": "nonpayable",
      "type": "function"
    },
    {
      "inputs": [
        {
          "internalType": "address",
          "name": "from",
          "type": "address"
        },
        {
          "internalType": "address",
          "name": "to",
          "type": "address"
        },
        {
          "internalType": "uint256",
          "name": "tokenId",
          "type": "uint256"
        },
        {
          "internalType": "bytes",
          "name": "data",
          "type": "bytes"
        }
      ],
      "name": "safeTransferFrom",
      "outputs": [],
      "stateMutability": "nonpayable",
      "type": "function"
    },
    {
      "inputs": [
        {
          "internalType": "address",
          "name": "operator",
          "type": "address"
        },
        {
          "internalType": "bool",
          "name": "approved",
          "type": "bool"
        }
      ],
      "name": "setApprovalForAll",
      "outputs": [],
      "stateMutability": "nonpayable",
      "type": "function"
    },
    {
      "inputs": [
        {
          "internalType": "bytes4",
          "name": "interfaceId",
          "type": "bytes4"
        }
      ],
      "name": "supportsInterface",
      "outputs": [
        {
          "internalType": "bool",
          "name": "",
          "type": "bool"
        }
      ],
      "stateMutability": "view",
      "type": "function"
    },
    {
      "inputs": [],
      "name": "symbol",
      "outputs": [
        {
          "internalType": "string",
          "name": "",
          "type": "string"
        }
      ],
      "stateMutability": "view",
      "type": "function"
    },
    {
      "inputs": [
        {
          "internalType": "uint256",
          "name": "tokenId",
          "type": "uint256"
        }
      ],
      "name": "tokenURI",
      "outputs": [
        {
          "internalType": "string",
          "name": "",
          "type": "string"
        }
      ],
      "stateMutability": "view",
      "type": "function"
    },
    {
      "inputs": [
        {
          "internalType": "address",
          "name": "from",
          "type": "address"
        },
        {
          "internalType": "address",
          "name": "to",
          "type": "address"
        },
        {
          "internalType": "uint256",
          "name": "tokenId",
          "type": "uint256"
        }
      ],
      "name": "transferFrom",
      "outputs": [],
      "stateMutability": "nonpayable",
      "type": "function"
    },
    {
      "inputs": [
        {
          "internalType": "address",
          "name": "newOwner",
          "type": "address"
        }
      ],
      "name": "transferOwnership",
      "outputs": [],
      "stateMutability": "nonpayable",
      "type": "function"
    }
  ],
  "bytecode": "0x60806040523480156200001157600080fd5b506040518060400160405280600781526020017f6d79546f6b656e000000000000000000000000000000000000000000000000008152506040518060400160405280600381526020017f4d52540000000000000000000000000000000000000000000000000000000000815250816000908051906020019062000096929190620001a6565b508060019080519060200190620000af929190620001a6565b505050620000d2620000c6620000d860201b60201c565b620000e060201b60201c565b620002bb565b600033905090565b6000600760009054906101000a900473ffffffffffffffffffffffffffffffffffffffff16905081600760006101000a81548173ffffffffffffffffffffffffffffffffffffffff021916908373ffffffffffffffffffffffffffffffffffffffff1602179055508173ffffffffffffffffffffffffffffffffffffffff168173ffffffffffffffffffffffffffffffffffffffff167f8be0079c531659141344cd1fd0a4f28419497f9722a3daafe3b4186f6b6457e060405160405180910390a35050565b828054620001b49062000256565b90600052602060002090601f016020900481019282620001d8576000855562000224565b82601f10620001f357805160ff191683800117855562000224565b8280016001018555821562000224579182015b828111156200022357825182559160200191906001019062000206565b5b50905062000233919062000237565b5090565b5b808211156200025257600081600090555060010162000238565b5090565b600060028204905060018216806200026f57607f821691505b602082108114156200028657620002856200028c565b5b50919050565b7f4e487b7100000000000000000000000000000000000000000000000000000000600052602260045260246000fd5b612c7680620002cb6000396000f3fe608060405234801561001057600080fd5b506004361061010b5760003560e01c806370a08231116100a2578063a22cb46511610071578063a22cb465146102b8578063b88d4fde146102d4578063c87b56dd146102f0578063e985e9c514610320578063f2fde38b146103505761010b565b806370a0823114610242578063715018a6146102725780638da5cb5b1461027c57806395d89b411461029a5761010b565b806323b872dd116100de57806323b872dd146101aa57806342842e0e146101c65780636352211e146101e2578063695850fb146102125761010b565b806301ffc9a71461011057806306fdde0314610140578063081812fc1461015e578063095ea7b31461018e575b600080fd5b61012a60048036038101906101259190611e52565b61036c565b6040516101379190612253565b60405180910390f35b61014861044e565b604051610155919061226e565b60405180910390f35b61017860048036038101906101739190611ee5565b6104e0565b60405161018591906121ec565b60405180910390f35b6101a860048036038101906101a39190611e16565b610526565b005b6101c460048036038101906101bf9190611d10565b61063e565b005b6101e060048036038101906101db9190611d10565b61069e565b005b6101fc60048036038101906101f79190611ee5565b6106be565b60405161020991906121ec565b60405180910390f35b61022c60048036038101906102279190611ea4565b610770565b6040516102399190612450565b60405180910390f35b61025c60048036038101906102579190611cab565b6107a6565b6040516102699190612450565b60405180910390f35b61027a61085e565b005b610284610872565b60405161029191906121ec565b60405180910390f35b6102a261089c565b6040516102af919061226e565b60405180910390f35b6102d260048036038101906102cd9190611dda565b61092e565b005b6102ee60048036038101906102e99190611d5f565b610944565b005b61030a60048036038101906103059190611ee5565b6109a6565b604051610317919061226e565b60405180910390f35b61033a60048036038101906103359190611cd4565b6109b8565b6040516103479190612253565b60405180910390f35b61036a60048036038101906103659190611cab565b610a4c565b005b60007f80ac58cd000000000000000000000000000000000000000000000000000000007bffffffffffffffffffffffffffffffffffffffffffffffffffffffff1916827bffffffffffffffffffffffffffffffffffffffffffffffffffffffff1916148061043757507f5b5e139f000000000000000000000000000000000000000000000000000000007bffffffffffffffffffffffffffffffffffffffffffffffffffffffff1916827bffffffffffffffffffffffffffffffffffffffffffffffffffffffff1916145b80610447575061044682610ad0565b5b9050919050565b60606000805461045d906126a6565b80601f0160208091040260200160405190810160405280929190818152602001828054610489906126a6565b80156104d65780601f106104ab576101008083540402835291602001916104d6565b820191906000526020600020905b8154815290600101906020018083116104b957829003601f168201915b5050505050905090565b60006104eb82610b3a565b6004600083815260200190815260200160002060009054906101000a900473ffffffffffffffffffffffffffffffffffffffff169050919050565b6000610531826106be565b90508073ffffffffffffffffffffffffffffffffffffffff168373ffffffffffffffffffffffffffffffffffffffff1614156105a2576040517f08c379a000000000000000000000000000000000000000000000000000000000815260040161059990612410565b60405180910390fd5b8073ffffffffffffffffffffffffffffffffffffffff166105c1610b85565b73ffffffffffffffffffffffffffffffffffffffff1614806105f057506105ef816105ea610b85565b6109b8565b5b61062f576040517f08c379a000000000000000000000000000000000000000000000000000000000815260040161062690612390565b60405180910390fd5b6106398383610b8d565b505050565b61064f610649610b85565b82610c46565b61068e576040517f08c379a000000000000000000000000000000000000000000000000000000000815260040161068590612430565b60405180910390fd5b610699838383610cdb565b505050565b6106b983838360405180602001604052806000815250610944565b505050565b6000806002600084815260200190815260200160002060009054906101000a900473ffffffffffffffffffffffffffffffffffffffff169050600073ffffffffffffffffffffffffffffffffffffffff168173ffffffffffffffffffffffffffffffffffffffff161415610767576040517f08c379a000000000000000000000000000000000000000000000000000000000815260040161075e906123f0565b60405180910390fd5b80915050919050565b60008061077d6008610f42565b90506107896008610f50565b6107933382610f66565b61079d8184610f84565b80915050919050565b60008073ffffffffffffffffffffffffffffffffffffffff168273ffffffffffffffffffffffffffffffffffffffff161415610817576040517f08c379a000000000000000000000000000000000000000000000000000000000815260040161080e90612350565b60405180910390fd5b600360008373ffffffffffffffffffffffffffffffffffffffff1673ffffffffffffffffffffffffffffffffffffffff168152602001908152602001600020549050919050565b610866610ff8565b6108706000611076565b565b6000600760009054906101000a900473ffffffffffffffffffffffffffffffffffffffff16905090565b6060600180546108ab906126a6565b80601f01602080910402602001604051908101604052809291908181526020018280546108d7906126a6565b80156109245780601f106108f957610100808354040283529160200191610924565b820191906000526020600020905b81548152906001019060200180831161090757829003601f168201915b5050505050905090565b610940610939610b85565b838361113c565b5050565b61095561094f610b85565b83610c46565b610994576040517f08c379a000000000000000000000000000000000000000000000000000000000815260040161098b90612430565b60405180910390fd5b6109a0848484846112a9565b50505050565b60606109b182611305565b9050919050565b6000600560008473ffffffffffffffffffffffffffffffffffffffff1673ffffffffffffffffffffffffffffffffffffffff16815260200190815260200160002060008373ffffffffffffffffffffffffffffffffffffffff1673ffffffffffffffffffffffffffffffffffffffff16815260200190815260200160002060009054906101000a900460ff16905092915050565b610a54610ff8565b600073ffffffffffffffffffffffffffffffffffffffff168173ffffffffffffffffffffffffffffffffffffffff161415610ac4576040517f08c379a0000000000000000000000000000000000000000000000000000000008152600401610abb906122b0565b60405180910390fd5b610acd81611076565b50565b60007f01ffc9a7000000000000000000000000000000000000000000000000000000007bffffffffffffffffffffffffffffffffffffffffffffffffffffffff1916827bffffffffffffffffffffffffffffffffffffffffffffffffffffffff1916149050919050565b610b4381611418565b610b82576040517f08c379a0000000000000000000000000000000000000000000000000000000008152600401610b79906123f0565b60405180910390fd5b50565b600033905090565b816004600083815260200190815260200160002060006101000a81548173ffffffffffffffffffffffffffffffffffffffff021916908373ffffffffffffffffffffffffffffffffffffffff160217905550808273ffffffffffffffffffffffffffffffffffffffff16610c00836106be565b73ffffffffffffffffffffffffffffffffffffffff167f8c5be1e5ebec7d5bd14f71427d1e84f3dd0314c0f7b2291e5b200ac8c7c3b92560405160405180910390a45050565b600080610c52836106be565b90508073ffffffffffffffffffffffffffffffffffffffff168473ffffffffffffffffffffffffffffffffffffffff161480610c945750610c9381856109b8565b5b80610cd257508373ffffffffffffffffffffffffffffffffffffffff16610cba846104e0565b73ffffffffffffffffffffffffffffffffffffffff16145b91505092915050565b8273ffffffffffffffffffffffffffffffffffffffff16610cfb826106be565b73ffffffffffffffffffffffffffffffffffffffff1614610d51576040517f08c379a0000000000000000000000000000000000000000000000000000000008152600401610d48906122d0565b60405180910390fd5b600073ffffffffffffffffffffffffffffffffffffffff168273ffffffffffffffffffffffffffffffffffffffff161415610dc1576040517f08c379a0000000000000000000000000000000000000000000000000000000008152600401610db890612310565b60405180910390fd5b610dcc838383611484565b610dd7600082610b8d565b6001600360008573ffffffffffffffffffffffffffffffffffffffff1673ffffffffffffffffffffffffffffffffffffffff1681526020019081526020016000206000828254610e2791906125bc565b925050819055506001600360008473ffffffffffffffffffffffffffffffffffffffff1673ffffffffffffffffffffffffffffffffffffffff1681526020019081526020016000206000828254610e7e9190612535565b92505081905550816002600083815260200190815260200160002060006101000a81548173ffffffffffffffffffffffffffffffffffffffff021916908373ffffffffffffffffffffffffffffffffffffffff160217905550808273ffffffffffffffffffffffffffffffffffffffff168473ffffffffffffffffffffffffffffffffffffffff167fddf252ad1be2c89b69c2b068fc378daa952ba7f163c4a11628f55a4df523b3ef60405160405180910390a4610f3d838383611489565b505050565b600081600001549050919050565b6001816000016000828254019250508190555050565b610f8082826040518060200160405280600081525061148e565b5050565b610f8d82611418565b610fcc576040517f08c379a0000000000000000000000000000000000000000000000000000000008152600401610fc390612370565b60405180910390fd5b80600660008481526020019081526020016000209080519060200190610ff3929190611acf565b505050565b611000610b85565b73ffffffffffffffffffffffffffffffffffffffff1661101e610872565b73ffffffffffffffffffffffffffffffffffffffff1614611074576040517f08c379a000000000000000000000000000000000000000000000000000000000815260040161106b906123d0565b60405180910390fd5b565b6000600760009054906101000a900473ffffffffffffffffffffffffffffffffffffffff16905081600760006101000a81548173ffffffffffffffffffffffffffffffffffffffff021916908373ffffffffffffffffffffffffffffffffffffffff1602179055508173ffffffffffffffffffffffffffffffffffffffff168173ffffffffffffffffffffffffffffffffffffffff167f8be0079c531659141344cd1fd0a4f28419497f9722a3daafe3b4186f6b6457e060405160405180910390a35050565b8173ffffffffffffffffffffffffffffffffffffffff168373ffffffffffffffffffffffffffffffffffffffff1614156111ab576040517f08c379a00000000000000000000000000000000000000000000000000000000081526004016111a290612330565b60405180910390fd5b80600560008573ffffffffffffffffffffffffffffffffffffffff1673ffffffffffffffffffffffffffffffffffffffff16815260200190815260200160002060008473ffffffffffffffffffffffffffffffffffffffff1673ffffffffffffffffffffffffffffffffffffffff16815260200190815260200160002060006101000a81548160ff0219169083151502179055508173ffffffffffffffffffffffffffffffffffffffff168373ffffffffffffffffffffffffffffffffffffffff167f17307eab39ab6107e8899845ad3d59bd9653f200f220920489ca2b5937696c318360405161129c9190612253565b60405180910390a3505050565b6112b4848484610cdb565b6112c0848484846114e9565b6112ff576040517f08c379a00000000000000000000000000000000000000000000000000000000081526004016112f690612290565b60405180910390fd5b50505050565b606061131082610b3a565b6000600660008481526020019081526020016000208054611330906126a6565b80601f016020809104026020016040519081016040528092919081815260200182805461135c906126a6565b80156113a95780601f1061137e576101008083540402835291602001916113a9565b820191906000526020600020905b81548152906001019060200180831161138c57829003601f168201915b5050505050905060006113ba611680565b90506000815114156113d0578192505050611413565b6000825111156114055780826040516020016113ed9291906121c8565b60405160208183030381529060405292505050611413565b61140e846116bd565b925050505b919050565b60008073ffffffffffffffffffffffffffffffffffffffff166002600084815260200190815260200160002060009054906101000a900473ffffffffffffffffffffffffffffffffffffffff1673ffffffffffffffffffffffffffffffffffffffff1614159050919050565b505050565b505050565b6114988383611725565b6114a560008484846114e9565b6114e4576040517f08c379a00000000000000000000000000000000000000000000000000000000081526004016114db90612290565b60405180910390fd5b505050565b600061150a8473ffffffffffffffffffffffffffffffffffffffff166118ff565b15611673578373ffffffffffffffffffffffffffffffffffffffff1663150b7a02611533610b85565b8786866040518563ffffffff1660e01b81526004016115559493929190612207565b602060405180830381600087803b15801561156f57600080fd5b505af19250505080156115a057506040513d601f19601f8201168201806040525081019061159d9190611e7b565b60015b611623573d80600081146115d0576040519150601f19603f3d011682016040523d82523d6000602084013e6115d5565b606091505b5060008151141561161b576040517f08c379a000000000000000000000000000000000000000000000000000000000815260040161161290612290565b60405180910390fd5b805181602001fd5b63150b7a0260e01b7bffffffffffffffffffffffffffffffffffffffffffffffffffffffff1916817bffffffffffffffffffffffffffffffffffffffffffffffffffffffff191614915050611678565b600190505b949350505050565b60606040518060400160405280601581526020017f68747470733a2f2f697066732e696f2f697066732f0000000000000000000000815250905090565b60606116c882610b3a565b60006116d2611680565b905060008151116116f2576040518060200160405280600081525061171d565b806116fc84611922565b60405160200161170d9291906121c8565b6040516020818303038152906040525b915050919050565b600073ffffffffffffffffffffffffffffffffffffffff168273ffffffffffffffffffffffffffffffffffffffff161415611795576040517f08c379a000000000000000000000000000000000000000000000000000000000815260040161178c906123b0565b60405180910390fd5b61179e81611418565b156117de576040517f08c379a00000000000000000000000000000000000000000000000000000000081526004016117d5906122f0565b60405180910390fd5b6117ea60008383611484565b6001600360008473ffffffffffffffffffffffffffffffffffffffff1673ffffffffffffffffffffffffffffffffffffffff168152602001908152602001600020600082825461183a9190612535565b92505081905550816002600083815260200190815260200160002060006101000a81548173ffffffffffffffffffffffffffffffffffffffff021916908373ffffffffffffffffffffffffffffffffffffffff160217905550808273ffffffffffffffffffffffffffffffffffffffff16600073ffffffffffffffffffffffffffffffffffffffff167fddf252ad1be2c89b69c2b068fc378daa952ba7f163c4a11628f55a4df523b3ef60405160405180910390a46118fb60008383611489565b5050565b6000808273ffffffffffffffffffffffffffffffffffffffff163b119050919050565b6060600082141561196a576040518060400160405280600181526020017f30000000000000000000000000000000000000000000000000000000000000008152509050611aca565b600082905060005b6000821461199c57808061198590612709565b915050600a82611995919061258b565b9150611972565b60008167ffffffffffffffff8111156119de577f4e487b7100000000000000000000000000000000000000000000000000000000600052604160045260246000fd5b6040519080825280601f01601f191660200182016040528015611a105781602001600182028036833780820191505090505b5090505b60008514611ac357600182611a2991906125bc565b9150600a85611a389190612752565b6030611a449190612535565b60f81b818381518110611a80577f4e487b7100000000000000000000000000000000000000000000000000000000600052603260045260246000fd5b60200101907effffffffffffffffffffffffffffffffffffffffffffffffffffffffffffff1916908160001a905350600a85611abc919061258b565b9450611a14565b8093505050505b919050565b828054611adb906126a6565b90600052602060002090601f016020900481019282611afd5760008555611b44565b82601f10611b1657805160ff1916838001178555611b44565b82800160010185558215611b44579182015b82811115611b43578251825591602001919060010190611b28565b5b509050611b519190611b55565b5090565b5b80821115611b6e576000816000905550600101611b56565b5090565b6000611b85611b8084612490565b61246b565b905082815260208101848484011115611b9d57600080fd5b611ba8848285612664565b509392505050565b6000611bc3611bbe846124c1565b61246b565b905082815260208101848484011115611bdb57600080fd5b611be6848285612664565b509392505050565b600081359050611bfd81612be4565b92915050565b600081359050611c1281612bfb565b92915050565b600081359050611c2781612c12565b92915050565b600081519050611c3c81612c12565b92915050565b600082601f830112611c5357600080fd5b8135611c63848260208601611b72565b91505092915050565b600082601f830112611c7d57600080fd5b8135611c8d848260208601611bb0565b91505092915050565b600081359050611ca581612c29565b92915050565b600060208284031215611cbd57600080fd5b6000611ccb84828501611bee565b91505092915050565b60008060408385031215611ce757600080fd5b6000611cf585828601611bee565b9250506020611d0685828601611bee565b9150509250929050565b600080600060608486031215611d2557600080fd5b6000611d3386828701611bee565b9350506020611d4486828701611bee565b9250506040611d5586828701611c96565b9150509250925092565b60008060008060808587031215611d7557600080fd5b6000611d8387828801611bee565b9450506020611d9487828801611bee565b9350506040611da587828801611c96565b925050606085013567ffffffffffffffff811115611dc257600080fd5b611dce87828801611c42565b91505092959194509250565b60008060408385031215611ded57600080fd5b6000611dfb85828601611bee565b9250506020611e0c85828601611c03565b9150509250929050565b60008060408385031215611e2957600080fd5b6000611e3785828601611bee565b9250506020611e4885828601611c96565b9150509250929050565b600060208284031215611e6457600080fd5b6000611e7284828501611c18565b91505092915050565b600060208284031215611e8d57600080fd5b6000611e9b84828501611c2d565b91505092915050565b600060208284031215611eb657600080fd5b600082013567ffffffffffffffff811115611ed057600080fd5b611edc84828501611c6c565b91505092915050565b600060208284031215611ef757600080fd5b6000611f0584828501611c96565b91505092915050565b611f17816125f0565b82525050565b611f2681612602565b82525050565b6000611f37826124f2565b611f418185612508565b9350611f51818560208601612673565b611f5a8161283f565b840191505092915050565b6000611f70826124fd565b611f7a8185612519565b9350611f8a818560208601612673565b611f938161283f565b840191505092915050565b6000611fa9826124fd565b611fb3818561252a565b9350611fc3818560208601612673565b80840191505092915050565b6000611fdc603283612519565b9150611fe782612850565b604082019050919050565b6000611fff602683612519565b915061200a8261289f565b604082019050919050565b6000612022602583612519565b915061202d826128ee565b604082019050919050565b6000612045601c83612519565b91506120508261293d565b602082019050919050565b6000612068602483612519565b915061207382612966565b604082019050919050565b600061208b601983612519565b9150612096826129b5565b602082019050919050565b60006120ae602983612519565b91506120b9826129de565b604082019050919050565b60006120d1602e83612519565b91506120dc82612a2d565b604082019050919050565b60006120f4603e83612519565b91506120ff82612a7c565b604082019050919050565b6000612117602083612519565b915061212282612acb565b602082019050919050565b600061213a602083612519565b915061214582612af4565b602082019050919050565b600061215d601883612519565b915061216882612b1d565b602082019050919050565b6000612180602183612519565b915061218b82612b46565b604082019050919050565b60006121a3602e83612519565b91506121ae82612b95565b604082019050919050565b6121c28161265a565b82525050565b60006121d48285611f9e565b91506121e08284611f9e565b91508190509392505050565b60006020820190506122016000830184611f0e565b92915050565b600060808201905061221c6000830187611f0e565b6122296020830186611f0e565b61223660408301856121b9565b81810360608301526122488184611f2c565b905095945050505050565b60006020820190506122686000830184611f1d565b92915050565b600060208201905081810360008301526122888184611f65565b905092915050565b600060208201905081810360008301526122a981611fcf565b9050919050565b600060208201905081810360008301526122c981611ff2565b9050919050565b600060208201905081810360008301526122e981612015565b9050919050565b6000602082019050818103600083015261230981612038565b9050919050565b600060208201905081810360008301526123298161205b565b9050919050565b600060208201905081810360008301526123498161207e565b9050919050565b60006020820190508181036000830152612369816120a1565b9050919050565b60006020820190508181036000830152612389816120c4565b9050919050565b600060208201905081810360008301526123a9816120e7565b9050919050565b600060208201905081810360008301526123c98161210a565b9050919050565b600060208201905081810360008301526123e98161212d565b9050919050565b6000602082019050818103600083015261240981612150565b9050919050565b6000602082019050818103600083015261242981612173565b9050919050565b6000602082019050818103600083015261244981612196565b9050919050565b600060208201905061246560008301846121b9565b92915050565b6000612475612486565b905061248182826126d8565b919050565b6000604051905090565b600067ffffffffffffffff8211156124ab576124aa612810565b5b6124b48261283f565b9050602081019050919050565b600067ffffffffffffffff8211156124dc576124db612810565b5b6124e58261283f565b9050602081019050919050565b600081519050919050565b600081519050919050565b600082825260208201905092915050565b600082825260208201905092915050565b600081905092915050565b60006125408261265a565b915061254b8361265a565b9250827fffffffffffffffffffffffffffffffffffffffffffffffffffffffffffffffff038211156125805761257f612783565b5b828201905092915050565b60006125968261265a565b91506125a18361265a565b9250826125b1576125b06127b2565b5b828204905092915050565b60006125c78261265a565b91506125d28361265a565b9250828210156125e5576125e4612783565b5b828203905092915050565b60006125fb8261263a565b9050919050565b60008115159050919050565b60007fffffffff0000000000000000000000000000000000000000000000000000000082169050919050565b600073ffffffffffffffffffffffffffffffffffffffff82169050919050565b6000819050919050565b82818337600083830152505050565b60005b83811015612691578082015181840152602081019050612676565b838111156126a0576000848401525b50505050565b600060028204905060018216806126be57607f821691505b602082108114156126d2576126d16127e1565b5b50919050565b6126e18261283f565b810181811067ffffffffffffffff82111715612700576126ff612810565b5b80604052505050565b60006127148261265a565b91507fffffffffffffffffffffffffffffffffffffffffffffffffffffffffffffffff82141561274757612746612783565b5b600182019050919050565b600061275d8261265a565b91506127688361265a565b925082612778576127776127b2565b5b828206905092915050565b7f4e487b7100000000000000000000000000000000000000000000000000000000600052601160045260246000fd5b7f4e487b7100000000000000000000000000000000000000000000000000000000600052601260045260246000fd5b7f4e487b7100000000000000000000000000000000000000000000000000000000600052602260045260246000fd5b7f4e487b7100000000000000000000000000000000000000000000000000000000600052604160045260246000fd5b6000601f19601f8301169050919050565b7f4552433732313a207472616e7366657220746f206e6f6e20455243373231526560008201527f63656976657220696d706c656d656e7465720000000000000000000000000000602082015250565b7f4f776e61626c653a206e6577206f776e657220697320746865207a65726f206160008201527f6464726573730000000000000000000000000000000000000000000000000000602082015250565b7f4552433732313a207472616e736665722066726f6d20696e636f72726563742060008201527f6f776e6572000000000000000000000000000000000000000000000000000000602082015250565b7f4552433732313a20746f6b656e20616c7265616479206d696e74656400000000600082015250565b7f4552433732313a207472616e7366657220746f20746865207a65726f2061646460008201527f7265737300000000000000000000000000000000000000000000000000000000602082015250565b7f4552433732313a20617070726f766520746f2063616c6c657200000000000000600082015250565b7f4552433732313a2061646472657373207a65726f206973206e6f74206120766160008201527f6c6964206f776e65720000000000000000000000000000000000000000000000602082015250565b7f45524337323155524953746f726167653a2055524920736574206f66206e6f6e60008201527f6578697374656e7420746f6b656e000000000000000000000000000000000000602082015250565b7f4552433732313a20617070726f76652063616c6c6572206973206e6f7420746f60008201527f6b656e206f776e6572206e6f7220617070726f76656420666f7220616c6c0000602082015250565b7f4552433732313a206d696e7420746f20746865207a65726f2061646472657373600082015250565b7f4f776e61626c653a2063616c6c6572206973206e6f7420746865206f776e6572600082015250565b7f4552433732313a20696e76616c696420746f6b656e2049440000000000000000600082015250565b7f4552433732313a20617070726f76616c20746f2063757272656e74206f776e6560008201527f7200000000000000000000000000000000000000000000000000000000000000602082015250565b7f4552433732313a2063616c6c6572206973206e6f7420746f6b656e206f776e6560008201527f72206e6f7220617070726f766564000000000000000000000000000000000000602082015250565b612bed816125f0565b8114612bf857600080fd5b50565b612c0481612602565b8114612c0f57600080fd5b50565b612c1b8161260e565b8114612c2657600080fd5b50565b612c328161265a565b8114612c3d57600080fd5b5056fea26469706673582212208511d6d26f0ffb8d014e604764a713e40cb7968e8a3a93bb5a784c221e12a4e164736f6c63430008040033",
  "linkReferences": {},
  "deployedLinkReferences": {}
}